{
  "_format": "hh-sol-artifact-1",
  "contractName": "DataSharing",
  "sourceName": "contracts/DataSharing.sol",
  "abi": [
    {
      "inputs": [
        {
          "internalType": "address",
          "name": "_setNewPlatform",
          "type": "address"
        },
        {
          "internalType": "string",
          "name": "_domain",
          "type": "string"
        },
        {
          "internalType": "string",
          "name": "_version",
          "type": "string"
        }
      ],
      "stateMutability": "nonpayable",
      "type": "constructor"
    },
    {
      "inputs": [],
      "name": "AddressNotEligible",
      "type": "error"
    },
    {
      "inputs": [],
      "name": "AlreadyExist",
      "type": "error"
    },
    {
      "inputs": [],
      "name": "AlreadyRemoved",
      "type": "error"
    },
    {
      "inputs": [],
      "name": "DelegateAlreadyExist",
      "type": "error"
    },
    {
      "inputs": [],
      "name": "ECDSAInvalidSignature",
      "type": "error"
    },
    {
      "inputs": [
        {
          "internalType": "uint256",
          "name": "length",
          "type": "uint256"
        }
      ],
      "name": "ECDSAInvalidSignatureLength",
      "type": "error"
    },
    {
      "inputs": [
        {
          "internalType": "bytes32",
          "name": "s",
          "type": "bytes32"
        }
      ],
      "name": "ECDSAInvalidSignatureS",
      "type": "error"
    },
    {
      "inputs": [],
      "name": "InvalidAddress",
      "type": "error"
    },
    {
      "inputs": [],
      "name": "InvalidHash",
      "type": "error"
    },
    {
      "inputs": [],
      "name": "InvalidNonce",
      "type": "error"
    },
    {
      "inputs": [],
      "name": "InvalidShortString",
      "type": "error"
    },
    {
      "inputs": [],
      "name": "InvalidSignature",
      "type": "error"
    },
    {
      "inputs": [
        {
          "internalType": "string",
          "name": "data",
          "type": "string"
        }
      ],
      "name": "MetaTransactionFailed",
      "type": "error"
    },
    {
      "inputs": [],
      "name": "NikNeedRegistered",
      "type": "error"
    },
    {
      "inputs": [],
      "name": "NotEligible",
      "type": "error"
    },
    {
      "inputs": [
        {
          "internalType": "address",
          "name": "owner",
          "type": "address"
        }
      ],
      "name": "OwnableInvalidOwner",
      "type": "error"
    },
    {
      "inputs": [
        {
          "internalType": "address",
          "name": "account",
          "type": "address"
        }
      ],
      "name": "OwnableUnauthorizedAccount",
      "type": "error"
    },
    {
      "inputs": [],
      "name": "ProviderNotEligible",
      "type": "error"
    },
    {
      "inputs": [
        {
          "internalType": "string",
          "name": "str",
          "type": "string"
        }
      ],
      "name": "StringTooLong",
      "type": "error"
    },
    {
      "anonymous": false,
      "inputs": [
        {
          "indexed": true,
          "internalType": "bytes32",
          "name": "creditorCode",
          "type": "bytes32"
        },
        {
          "indexed": false,
          "internalType": "string",
          "name": "institutionCode",
          "type": "string"
        },
        {
          "indexed": false,
          "internalType": "string",
          "name": "institutionName",
          "type": "string"
        },
        {
          "indexed": false,
          "internalType": "string",
          "name": "approvalDate",
          "type": "string"
        },
        {
          "indexed": false,
          "internalType": "string",
          "name": "signerName",
          "type": "string"
        },
        {
          "indexed": false,
          "internalType": "string",
          "name": "signerPosition",
          "type": "string"
        }
      ],
      "name": "CreditorAddedWithMetadata",
      "type": "event"
    },
    {
      "anonymous": false,
      "inputs": [
        {
          "indexed": true,
          "internalType": "bytes32",
          "name": "nik",
          "type": "bytes32"
        },
        {
          "indexed": false,
          "internalType": "string",
          "name": "name",
          "type": "string"
        },
        {
          "indexed": true,
          "internalType": "bytes32",
          "name": "creditorCode",
          "type": "bytes32"
        },
        {
          "indexed": false,
          "internalType": "string",
          "name": "creditorName",
          "type": "string"
        },
        {
          "indexed": false,
          "internalType": "string",
          "name": "applicationDate",
          "type": "string"
        },
        {
          "indexed": false,
          "internalType": "string",
          "name": "approvalDate",
          "type": "string"
        },
        {
          "indexed": false,
          "internalType": "string",
          "name": "urlKTP",
          "type": "string"
        },
        {
          "indexed": false,
          "internalType": "string",
          "name": "urlApproval",
          "type": "string"
        }
      ],
      "name": "DebtorAddedWithMetadata",
      "type": "event"
    },
    {
      "anonymous": false,
      "inputs": [
        {
          "indexed": true,
          "internalType": "bytes32",
          "name": "nik",
          "type": "bytes32"
        },
        {
          "indexed": false,
          "internalType": "string",
          "name": "requestId",
          "type": "string"
        },
        {
          "indexed": false,
          "internalType": "bytes32",
          "name": "creditorConsumerCode",
          "type": "bytes32"
        },
        {
          "indexed": false,
          "internalType": "bytes32",
          "name": "creditorProviderCode",
          "type": "bytes32"
        },
        {
          "indexed": false,
          "internalType": "string",
          "name": "transactionId",
          "type": "string"
        },
        {
          "indexed": false,
          "internalType": "string",
          "name": "referenceId",
          "type": "string"
        },
        {
          "indexed": false,
          "internalType": "string",
          "name": "requestDate",
          "type": "string"
        }
      ],
      "name": "DelegationMetadata",
      "type": "event"
    },
    {
      "anonymous": false,
      "inputs": [],
      "name": "EIP712DomainChanged",
      "type": "event"
    },
    {
      "anonymous": false,
      "inputs": [
        {
          "indexed": false,
          "internalType": "address",
          "name": "user",
          "type": "address"
        },
        {
          "indexed": false,
          "internalType": "bytes",
          "name": "functionCall",
          "type": "bytes"
        }
      ],
      "name": "MetaTransactionExecuted",
      "type": "event"
    },
    {
      "anonymous": false,
      "inputs": [
        {
          "indexed": true,
          "internalType": "address",
          "name": "previousOwner",
          "type": "address"
        },
        {
          "indexed": true,
          "internalType": "address",
          "name": "newOwner",
          "type": "address"
        }
      ],
      "name": "OwnershipTransferred",
      "type": "event"
    },
    {
      "anonymous": false,
      "inputs": [
        {
          "indexed": false,
          "internalType": "string",
          "name": "institutionCode",
          "type": "string"
        },
        {
          "indexed": false,
          "internalType": "string",
          "name": "purchaseDate",
          "type": "string"
        },
        {
          "indexed": false,
          "internalType": "string",
          "name": "invoiceNumber",
          "type": "string"
        },
        {
          "indexed": false,
          "internalType": "uint256",
          "name": "packageId",
          "type": "uint256"
        },
        {
          "indexed": false,
          "internalType": "uint256",
          "name": "quantity",
          "type": "uint256"
        },
        {
          "indexed": false,
          "internalType": "string",
          "name": "startDate",
          "type": "string"
        },
        {
          "indexed": false,
          "internalType": "string",
          "name": "endDate",
          "type": "string"
        },
        {
          "indexed": false,
          "internalType": "uint256",
          "name": "quota",
          "type": "uint256"
        }
      ],
      "name": "PackagePurchased",
      "type": "event"
    },
    {
      "anonymous": false,
      "inputs": [
        {
          "indexed": true,
          "internalType": "bytes32",
          "name": "nik",
          "type": "bytes32"
        },
        {
          "indexed": true,
          "internalType": "bytes32",
          "name": "consumer",
          "type": "bytes32"
        },
        {
          "indexed": true,
          "internalType": "bytes32",
          "name": "provider",
          "type": "bytes32"
        },
        {
          "indexed": false,
          "internalType": "string",
          "name": "metadata",
          "type": "string"
        }
      ],
      "name": "ProcessAction",
      "type": "event"
    },
    {
      "anonymous": false,
      "inputs": [
        {
          "indexed": true,
          "internalType": "address",
          "name": "platform",
          "type": "address"
        }
      ],
      "name": "SetNewAddressPlatform",
      "type": "event"
    },
    {
      "inputs": [
        {
          "internalType": "address",
          "name": "creditorAddress",
          "type": "address"
        },
        {
          "internalType": "bytes32",
          "name": "creditorCode",
          "type": "bytes32"
        },
        {
          "internalType": "string",
          "name": "institutionCode",
          "type": "string"
        },
        {
          "internalType": "string",
          "name": "institutionName",
          "type": "string"
        },
        {
          "internalType": "string",
          "name": "approvalDate",
          "type": "string"
        },
        {
          "internalType": "string",
          "name": "signerName",
          "type": "string"
        },
        {
          "internalType": "string",
          "name": "signerPosition",
          "type": "string"
        }
      ],
      "name": "addCreditor",
      "outputs": [],
      "stateMutability": "nonpayable",
      "type": "function"
    },
    {
      "inputs": [
        {
          "internalType": "bytes32",
          "name": "creditorCode",
          "type": "bytes32"
        },
        {
          "internalType": "address",
          "name": "creditorAddress",
          "type": "address"
        }
      ],
      "name": "addCreditor",
      "outputs": [],
      "stateMutability": "nonpayable",
      "type": "function"
    },
    {
      "inputs": [
        {
          "internalType": "bytes32",
          "name": "nik",
          "type": "bytes32"
        },
        {
          "internalType": "address",
          "name": "debtorAddress",
          "type": "address"
        }
      ],
      "name": "addDebtor",
      "outputs": [],
      "stateMutability": "nonpayable",
      "type": "function"
    },
    {
      "inputs": [
        {
          "internalType": "bytes32",
          "name": "nik",
          "type": "bytes32"
        },
        {
          "internalType": "bytes32",
          "name": "creditor",
          "type": "bytes32"
        },
        {
          "internalType": "string",
          "name": "name",
          "type": "string"
        },
        {
          "internalType": "string",
          "name": "creditorName",
          "type": "string"
        },
        {
          "internalType": "string",
          "name": "applicationDate",
          "type": "string"
        },
        {
          "internalType": "string",
          "name": "approvalDate",
          "type": "string"
        },
        {
          "internalType": "string",
          "name": "urlKTP",
          "type": "string"
        },
        {
          "internalType": "string",
          "name": "urlApproval",
          "type": "string"
        }
      ],
      "name": "addDebtorToCreditor",
      "outputs": [],
      "stateMutability": "nonpayable",
      "type": "function"
    },
    {
      "inputs": [
        {
          "internalType": "bytes32",
          "name": "nik",
          "type": "bytes32"
        },
        {
          "internalType": "bytes32",
          "name": "consumer",
          "type": "bytes32"
        },
        {
          "internalType": "bytes32",
          "name": "provider",
          "type": "bytes32"
        }
      ],
      "name": "delegate",
      "outputs": [],
      "stateMutability": "nonpayable",
      "type": "function"
    },
    {
      "inputs": [
        {
          "internalType": "bytes32",
          "name": "nik",
          "type": "bytes32"
        },
        {
          "internalType": "bytes32",
          "name": "consumer",
          "type": "bytes32"
        },
        {
          "internalType": "bytes32",
          "name": "provider",
          "type": "bytes32"
        },
        {
          "internalType": "string",
          "name": "requestId",
          "type": "string"
        },
        {
          "internalType": "string",
          "name": "transactionId",
          "type": "string"
        },
        {
          "internalType": "string",
          "name": "referenceId",
          "type": "string"
        },
        {
          "internalType": "string",
          "name": "requestDate",
          "type": "string"
        }
      ],
      "name": "delegate",
      "outputs": [],
      "stateMutability": "nonpayable",
      "type": "function"
    },
    {
      "inputs": [],
      "name": "eip712Domain",
      "outputs": [
        {
          "internalType": "bytes1",
          "name": "fields",
          "type": "bytes1"
        },
        {
          "internalType": "string",
          "name": "name",
          "type": "string"
        },
        {
          "internalType": "string",
          "name": "version",
          "type": "string"
        },
        {
          "internalType": "uint256",
          "name": "chainId",
          "type": "uint256"
        },
        {
          "internalType": "address",
          "name": "verifyingContract",
          "type": "address"
        },
        {
          "internalType": "bytes32",
          "name": "salt",
          "type": "bytes32"
        },
        {
          "internalType": "uint256[]",
          "name": "extensions",
          "type": "uint256[]"
        }
      ],
      "stateMutability": "view",
      "type": "function"
    },
    {
      "inputs": [
        {
          "internalType": "address",
          "name": "from",
          "type": "address"
        },
        {
          "internalType": "uint256",
          "name": "nonce",
          "type": "uint256"
        },
        {
          "internalType": "bytes",
          "name": "functionCall",
          "type": "bytes"
        },
        {
          "internalType": "bytes",
          "name": "signature",
          "type": "bytes"
        }
      ],
      "name": "executeMetaTransaction",
      "outputs": [],
      "stateMutability": "nonpayable",
      "type": "function"
    },
    {
      "inputs": [
        {
          "internalType": "bytes32",
          "name": "nik",
          "type": "bytes32"
        }
      ],
      "name": "getActiveCreditors",
      "outputs": [
        {
          "internalType": "address[]",
          "name": "",
          "type": "address[]"
        }
      ],
      "stateMutability": "view",
      "type": "function"
    },
    {
      "inputs": [
        {
          "internalType": "bytes32",
          "name": "codeCreditor",
          "type": "bytes32"
        }
      ],
      "name": "getCreditor",
      "outputs": [
        {
          "internalType": "address",
          "name": "",
          "type": "address"
        }
      ],
      "stateMutability": "view",
      "type": "function"
    },
    {
      "inputs": [
        {
          "internalType": "bytes32",
          "name": "nik",
          "type": "bytes32"
        }
      ],
      "name": "getDebtor",
      "outputs": [
        {
          "internalType": "address",
          "name": "",
          "type": "address"
        }
      ],
      "stateMutability": "view",
      "type": "function"
    },
    {
      "inputs": [
        {
          "internalType": "bytes32",
          "name": "nik",
          "type": "bytes32"
        }
      ],
      "name": "getDebtorDataActiveCreditors",
      "outputs": [
        {
          "internalType": "address[]",
          "name": "",
          "type": "address[]"
        },
        {
          "internalType": "enum Delegation.Status[]",
          "name": "",
          "type": "uint8[]"
        }
      ],
      "stateMutability": "view",
      "type": "function"
    },
    {
      "inputs": [
        {
          "internalType": "address",
          "name": "",
          "type": "address"
        }
      ],
      "name": "nonces",
      "outputs": [
        {
          "internalType": "uint256",
          "name": "",
          "type": "uint256"
        }
      ],
      "stateMutability": "view",
      "type": "function"
    },
    {
      "inputs": [],
      "name": "owner",
      "outputs": [
        {
          "internalType": "address",
          "name": "",
          "type": "address"
        }
      ],
      "stateMutability": "view",
      "type": "function"
    },
    {
      "inputs": [
        {
          "internalType": "bytes32",
          "name": "nik",
          "type": "bytes32"
        },
        {
          "internalType": "bytes32",
          "name": "consumer",
          "type": "bytes32"
        },
        {
          "internalType": "bytes32",
          "name": "provider",
          "type": "bytes32"
        },
        {
          "internalType": "string",
          "name": "metadta",
          "type": "string"
        }
      ],
      "name": "processAction",
      "outputs": [],
      "stateMutability": "nonpayable",
      "type": "function"
    },
    {
      "inputs": [
        {
          "internalType": "string",
          "name": "institutionCode",
          "type": "string"
        },
        {
          "internalType": "string",
          "name": "purchaseDate",
          "type": "string"
        },
        {
          "internalType": "string",
          "name": "invoiceNumber",
          "type": "string"
        },
        {
          "internalType": "uint256",
          "name": "packageId",
          "type": "uint256"
        },
        {
          "internalType": "uint256",
          "name": "quantity",
          "type": "uint256"
        },
        {
          "internalType": "string",
          "name": "startDate",
          "type": "string"
        },
        {
          "internalType": "string",
          "name": "endDate",
          "type": "string"
        },
        {
          "internalType": "uint256",
          "name": "quota",
          "type": "uint256"
        }
      ],
      "name": "purchasePackage",
      "outputs": [],
      "stateMutability": "nonpayable",
      "type": "function"
    },
    {
      "inputs": [
        {
          "internalType": "bytes32",
          "name": "creditorCode",
          "type": "bytes32"
        }
      ],
      "name": "removeCreditor",
      "outputs": [],
      "stateMutability": "nonpayable",
      "type": "function"
    },
    {
      "inputs": [
        {
          "internalType": "bytes32",
          "name": "nik",
          "type": "bytes32"
        }
      ],
      "name": "removeDebtor",
      "outputs": [],
      "stateMutability": "nonpayable",
      "type": "function"
    },
    {
      "inputs": [],
      "name": "renounceOwnership",
      "outputs": [],
      "stateMutability": "nonpayable",
      "type": "function"
    },
    {
      "inputs": [
        {
          "internalType": "address",
          "name": "setNewPlatform",
          "type": "address"
        }
      ],
      "name": "setPlatform",
      "outputs": [],
      "stateMutability": "nonpayable",
      "type": "function"
    },
    {
      "inputs": [
        {
          "internalType": "address",
          "name": "newOwner",
          "type": "address"
        }
      ],
      "name": "transferOwnership",
      "outputs": [],
      "stateMutability": "nonpayable",
      "type": "function"
    }
  ],
  "bytecode": "0x6101606040523480156200001257600080fd5b5060405162002cb938038062002cb9833981016040819052620000359162000414565b338282620000458260046200013d565b61012052620000568160056200013d565b61014052815160208084019190912060e052815190820120610100524660a052620000e460e05161010051604080517f8b73c3c69bb8fe3d512ecc4cf759cc79239f7b179b0ffacaa9a75d522b39400f60208201529081019290925260608201524660808201523060a082015260009060c00160405160208183030381529060405280519060200120905090565b60805250503060c0526001600160a01b0381166200011d57604051631e4fbdf760e01b8152600060048201526024015b60405180910390fd5b620001288162000176565b506200013483620001c8565b50505062000653565b60006020835110156200015d57620001558362000244565b905062000170565b816200016a84826200052d565b5060ff90505b92915050565b600680546001600160a01b038381166001600160a01b0319831681179093556040519116919082907f8be0079c531659141344cd1fd0a4f28419497f9722a3daafe3b4186f6b6457e090600090a35050565b620001d262000287565b6001600160a01b038116620001fa5760405163e6c4247b60e01b815260040160405180910390fd5b600880546001600160a01b0319166001600160a01b0383169081179091556040517f0c29ccd35615c19e4b0a32bd9ca83e6bea14f168e464bdb89b7838116a366f7a90600090a250565b600080829050601f8151111562000272578260405163305a27a960e01b8152600401620001149190620005f9565b80516200027f826200062e565b179392505050565b62000291620002ee565b6001600160a01b0316620002ad6006546001600160a01b031690565b6001600160a01b031614620002ec57620002c6620002ee565b60405163118cdaa760e01b81526001600160a01b03909116600482015260240162000114565b565b60003033036200034257600080368080601f0160208091040260200160405190810160405280939291908181526020018383808284376000920191909152505050503601516001600160a01b031692915050565b503390565b634e487b7160e01b600052604160045260246000fd5b60005b838110156200037a57818101518382015260200162000360565b50506000910152565b600082601f8301126200039557600080fd5b81516001600160401b0380821115620003b257620003b262000347565b604051601f8301601f19908116603f01168101908282118183101715620003dd57620003dd62000347565b81604052838152866020858801011115620003f757600080fd5b6200040a8460208301602089016200035d565b9695505050505050565b6000806000606084860312156200042a57600080fd5b83516001600160a01b03811681146200044257600080fd5b60208501519093506001600160401b03808211156200046057600080fd5b6200046e8783880162000383565b935060408601519150808211156200048557600080fd5b50620004948682870162000383565b9150509250925092565b600181811c90821680620004b357607f821691505b602082108103620004d457634e487b7160e01b600052602260045260246000fd5b50919050565b601f8211156200052857600081815260208120601f850160051c81016020861015620005035750805b601f850160051c820191505b8181101562000524578281556001016200050f565b5050505b505050565b81516001600160401b0381111562000549576200054962000347565b62000561816200055a84546200049e565b84620004da565b602080601f831160018114620005995760008415620005805750858301515b600019600386901b1c1916600185901b17855562000524565b600085815260208120601f198616915b82811015620005ca57888601518255948401946001909101908401620005a9565b5085821015620005e95787850151600019600388901b60f8161c191681555b5050505050600190811b01905550565b60208152600082518060208401526200061a8160408501602087016200035d565b601f01601f19169190910160400192915050565b80516020808301519190811015620004d45760001960209190910360031b1b16919050565b60805160a05160c05160e05161010051610120516101405161260b620006ae600039600061114701526000611115015260006118a70152600061187f015260006117da015260006118040152600061182e015261260b6000f3fe608060405234801561001057600080fd5b50600436106101375760003560e01c8063715018a6116100b85780638da5cb5b1161007c5780638da5cb5b146102d75780639db40062146102e8578063a1ae5f84146102fb578063bba6b3d31461030e578063dbb933a114610321578063f2fde38b1461033457600080fd5b8063715018a6146102455780637ecebe001461024d5780638070a4d91461027b57806384b0196e1461029b5780638baead35146102b657600080fd5b80633d234bbf116100ff5780633d234bbf146101d0578063524122cb146101e3578063532bbf87146101f657806354ca45cf146102095780636945c5ea1461023257600080fd5b806302d54e191461013c57806310b3971b1461018257806319527b56146101975780632cf696e4146101aa5780632fedc036146101bd575b600080fd5b61016561014a366004611af5565b6000908152600160205260409020546001600160a01b031690565b6040516001600160a01b0390911681526020015b60405180910390f35b610195610190366004611af5565b610347565b005b6101956101a5366004611bd1565b61038e565b6101956101b8366004611d3e565b610420565b6101956101cb366004611dc7565b610471565b6101956101de366004611df3565b6104ba565b6101956101f1366004611e1f565b610507565b610195610204366004611f0d565b610556565b610165610217366004611af5565b6000908152602081905260409020546001600160a01b031690565b610195610240366004611f66565b6105dc565b610195610655565b61026d61025b366004611f66565b60076020526000908152604090205481565b604051908152602001610179565b61028e610289366004611af5565b610669565b6040516101799190611fcc565b6102a361067a565b604051610179979695949392919061202f565b6102c96102c4366004611af5565b6106c0565b6040516101799291906120db565b6006546001600160a01b0316610165565b6101956102f6366004612150565b6106db565b61019561030936600461223b565b610769565b61019561031c366004611dc7565b6107eb565b61019561032f366004611af5565b610830565b610195610342366004611f66565b610874565b6008546001600160a01b031661035b6108b4565b6001600160a01b031614610382576040516374e1ac0560e11b815260040160405180910390fd5b61038b8161090c565b50565b6008546001600160a01b03166103a26108b4565b6001600160a01b0316146103c9576040516374e1ac0560e11b815260040160405180910390fd5b6103d3888861097c565b86887fade520a99431c398d6ed6e74fc227a2e49ca3fe335d8f8eb92b2c67a8b27ffd988888888888860405161040e96959493929190612282565b60405180910390a35050505050505050565b6008546001600160a01b03166104346108b4565b6001600160a01b03161461045b576040516374e1ac0560e11b815260040160405180910390fd5b610469868686868686610a5a565b505050505050565b6008546001600160a01b03166104856108b4565b6001600160a01b0316146104ac576040516374e1ac0560e11b815260040160405180910390fd5b6104b68282610bd4565b5050565b6008546001600160a01b03166104ce6108b4565b6001600160a01b0316146104f5576040516374e1ac0560e11b815260040160405180910390fd5b6105028383836001610c7c565b505050565b7fee0cb834b8f5066c6af936b2feefc3f004c8f219ab7df46e7c399a8e6e56c0eb8888888888888888604051610544989796959493929190612304565b60405180910390a15050505050505050565b6008546001600160a01b031661056a6108b4565b6001600160a01b031614610591576040516374e1ac0560e11b815260040160405180910390fd5b61059c848484610d82565b8183857ff70530e1363632992405be559701b3eeac2f8c94a39e7529fd777bcbc9a38a85846040516105ce919061238a565b60405180910390a450505050565b6105e4610e6a565b6001600160a01b03811661060b5760405163e6c4247b60e01b815260040160405180910390fd5b600880546001600160a01b0319166001600160a01b0383169081179091556040517f0c29ccd35615c19e4b0a32bd9ca83e6bea14f168e464bdb89b7838116a366f7a90600090a250565b61065d610e6a565b6106676000610ec8565b565b606061067482610f1a565b92915050565b60006060806000806000606061068e61110e565b610696611140565b60408051600080825260208201909252600f60f81b9b939a50919850469750309650945092509050565b6060806000806106cf8561116d565b90969095509350505050565b6008546001600160a01b03166106ef6108b4565b6001600160a01b031614610716576040516374e1ac0560e11b815260040160405180910390fd5b61072086886112f1565b857f0ef8e1beb89cea90dd43277e4457c29ab335f765fd5cf2a3dee187eb6b3937cb868686868660405161075895949392919061239d565b60405180910390a250505050505050565b6008546001600160a01b031661077d6108b4565b6001600160a01b0316146107a4576040516374e1ac0560e11b815260040160405180910390fd5b6107b18787876001610c7c565b867f5ba3716f8723e678c7e575baeff08819340a9e14c84a90173e86505e2118e07b8588888787876040516107589695949392919061240a565b6008546001600160a01b03166107ff6108b4565b6001600160a01b031614610826576040516374e1ac0560e11b815260040160405180910390fd5b6104b682826112f1565b6008546001600160a01b03166108446108b4565b6001600160a01b03161461086b576040516374e1ac0560e11b815260040160405180910390fd5b61038b81611399565b61087c610e6a565b6001600160a01b0381166108ab57604051631e4fbdf760e01b8152600060048201526024015b60405180910390fd5b61038b81610ec8565b600030330361090757600080368080601f0160208091040260200160405190810160405280939291908181526020018383808284376000920191909152505050503601516001600160a01b031692915050565b503390565b80610929576040516257c03760e51b815260040160405180910390fd5b6000818152602081905260409020546001600160a01b031661095e576040516355adf54760e11b815260040160405180910390fd5b600090815260208190526040902080546001600160a01b0319169055565b811580610987575080155b156109a4576040516257c03760e51b815260040160405180910390fd5b60006109af82611409565b905060006109bc8461143f565b50905060016001600160a01b03831660009081526020839052604090205460ff1660018111156109ee576109ee6120c5565b03610a0c576040516333e9449d60e21b815260040160405180910390fd5b6001600160a01b03919091166000818152602083815260408220805460ff19166001908117909155938401805494850181558252902090910180546001600160a01b03191690911790555050565b6001600160a01b038616600090815260076020526040902054858114610a9357604051633ab3447f60e11b815260040160405180910390fd5b610aa1878787878787611498565b610abe57604051638baa579f60e01b815260040160405180910390fd5b610ac9816001612451565b6001600160a01b0388166000908152600760209081526040808320939093559151909182913091610b00918a918a918e9101612464565b60408051601f1981840301815290829052610b1a9161248a565b6000604051808303816000865af19150503d8060008114610b57576040519150601f19603f3d011682016040523d82523d6000602084013e610b5c565b606091505b509150915081610b8e576000610b7182611584565b9050806040516310b6c2db60e01b81526004016108a2919061238a565b7fac470f3118096492e2f9f1d479269b22af43d8c9eba96e8de7d2fe8ebfed0eec898888604051610bc1939291906124a6565b60405180910390a1505050505050505050565b81610bf1576040516257c03760e51b815260040160405180910390fd5b6001600160a01b038116610c185760405163e6c4247b60e01b815260040160405180910390fd5b6000828152602081905260409020546001600160a01b031615610c4e576040516333e9449d60e21b815260040160405180910390fd5b60009182526020829052604090912080546001600160a01b0319166001600160a01b03909216919091179055565b6000806000610c8c8787876115da565b9194509250905060006001600160a01b0380841660009081526003602090815260408083209386168352929052205460ff166001811115610ccf57610ccf6120c5565b14610ced57604051630c955b3b60e21b815260040160405180910390fd5b6001600160a01b038083166000908152600360209081526040808320938516835292905220805485919060ff191660018381811115610d2e57610d2e6120c5565b02179055506001600160a01b038084166000908152600260209081526040808320938616835292905220805485919060ff191660018381811115610d7457610d746120c5565b021790555050505050505050565b821580610d8d575081155b80610d96575080155b15610db3576040516257c03760e51b815260040160405180910390fd5b600080610dbf8561143f565b90925090506000610dcf85611409565b90506000610ddc85611409565b6001600160a01b038181166000818152602088815260408083208054600160ff199182168117909255818c01805480840182559086528486200180546001600160a01b03191687179055898716808652600385528386209686529584528285208054821683179055958a16845260028352818420948452939091529020805493945090929091168280610d74565b610e726108b4565b6001600160a01b0316610e8d6006546001600160a01b031690565b6001600160a01b03161461066757610ea36108b4565b60405163118cdaa760e01b81526001600160a01b0390911660048201526024016108a2565b600680546001600160a01b038381166001600160a01b0319831681179093556040519116919082907f8be0079c531659141344cd1fd0a4f28419497f9722a3daafe3b4186f6b6457e090600090a35050565b60606000610f278361143f565b50905060006001815b6001840154811015610fc757816001811115610f4e57610f4e6120c5565b846000016000866001018481548110610f6957610f696124e6565b60009182526020808320909101546001600160a01b0316835282019290925260400190205460ff166001811115610fa257610fa26120c5565b03610fb55782610fb1816124fc565b9350505b80610fbf816124fc565b915050610f30565b50816001600160401b03811115610fe057610fe0611b0e565b604051908082528060200260200182016040528015611009578160200160208202803683370190505b5093506000805b60018501548110156111045782600181111561102e5761102e6120c5565b856000016000876001018481548110611049576110496124e6565b60009182526020808320909101546001600160a01b0316835282019290925260400190205460ff166001811115611082576110826120c5565b036110f25784600101818154811061109c5761109c6124e6565b9060005260206000200160009054906101000a90046001600160a01b03168683815181106110cc576110cc6124e6565b6001600160a01b0390921660209283029190910190910152816110ee816124fc565b9250505b806110fc816124fc565b915050611010565b5050505050919050565b606061113b7f0000000000000000000000000000000000000000000000000000000000000000600461168b565b905090565b606061113b7f0000000000000000000000000000000000000000000000000000000000000000600561168b565b606080600061117b8461143f565b506001810154909150806001600160401b0381111561119c5761119c611b0e565b6040519080825280602002602001820160405280156111c5578160200160208202803683370190505b509350806001600160401b038111156111e0576111e0611b0e565b604051908082528060200260200182016040528015611209578160200160208202803683370190505b50925060005b818110156112e957600083600101828154811061122e5761122e6124e6565b9060005260206000200160009054906101000a90046001600160a01b0316905080868381518110611261576112616124e6565b6001600160a01b039283166020918202929092018101919091529082166000908152908590526040902054855160ff909116908690849081106112a6576112a66124e6565b602002602001019060018111156112bf576112bf6120c5565b908160018111156112d2576112d26120c5565b9052508190506112e1816124fc565b91505061120f565b505050915091565b8161130e576040516257c03760e51b815260040160405180910390fd5b6001600160a01b0381166113355760405163e6c4247b60e01b815260040160405180910390fd5b6000828152600160205260409020546001600160a01b03161561136b576040516333e9449d60e21b815260040160405180910390fd5b60009182526001602052604090912080546001600160a01b0319166001600160a01b03909216919091179055565b806113b6576040516257c03760e51b815260040160405180910390fd5b6000818152600160205260409020546001600160a01b03166113eb576040516355adf54760e11b815260040160405180910390fd5b600090815260016020526040902080546001600160a01b0319169055565b6000818152600160205260408120546001600160a01b03168061067457604051637c75aa6f60e11b815260040160405180910390fd5b60008181526020819052604081205481906001600160a01b031680611477576040516359570db960e01b815260040160405180910390fd5b6001600160a01b038116600090815260026020526040902094909350915050565b6000806115237f802101c521e1f427a5bd7c936dcf11e0b8ce88df283595a8baba40ff4b6bb877898989896040516114d1929190612515565b604051908190038120611508949392916020019384526001600160a01b039290921660208401526040830152606082015260800190565b60405160208183030381529060405280519060200120611737565b905060006115678286868080601f01602080910402602001604051908101604052809392919081815260200183838082843760009201919091525061176492505050565b6001600160a01b03908116908a1614925050509695505050505050565b60606044825110156115c0575050604080518082019091526014815273151c985b9cd858dd1a5bdb881c995d995c9d195960621b602082015290565b600482019150818060200190518101906106749190612525565b600080808515806115e9575084155b806115f2575083155b1561160f576040516257c03760e51b815260040160405180910390fd5b600061161a8761143f565b9450905061162786611409565b925061163285611409565b915060016001600160a01b03831660009081526020839052604090205460ff166001811115611663576116636120c5565b1461168157604051632ca5a5f160e21b815260040160405180910390fd5b5093509350939050565b606060ff83146116a55761169e8361178e565b9050610674565b8180546116b19061259b565b80601f01602080910402602001604051908101604052809291908181526020018280546116dd9061259b565b801561172a5780601f106116ff5761010080835404028352916020019161172a565b820191906000526020600020905b81548152906001019060200180831161170d57829003601f168201915b5050505050905092915050565b60006106746117446117cd565b8360405161190160f01b8152600281019290925260228201526042902090565b60008060008061177486866118f8565b9250925092506117848282611945565b5090949350505050565b6060600061179b836119fe565b604080516020808252818301909252919250600091906020820181803683375050509182525060208101929092525090565b6000306001600160a01b037f00000000000000000000000000000000000000000000000000000000000000001614801561182657507f000000000000000000000000000000000000000000000000000000000000000046145b1561185057507f000000000000000000000000000000000000000000000000000000000000000090565b61113b604080517f8b73c3c69bb8fe3d512ecc4cf759cc79239f7b179b0ffacaa9a75d522b39400f60208201527f0000000000000000000000000000000000000000000000000000000000000000918101919091527f000000000000000000000000000000000000000000000000000000000000000060608201524660808201523060a082015260009060c00160405160208183030381529060405280519060200120905090565b600080600083516041036119325760208401516040850151606086015160001a61192488828585611a26565b95509550955050505061193e565b50508151600091506002905b9250925092565b6000826003811115611959576119596120c5565b03611962575050565b6001826003811115611976576119766120c5565b036119945760405163f645eedf60e01b815260040160405180910390fd5b60028260038111156119a8576119a86120c5565b036119c95760405163fce698f760e01b8152600481018290526024016108a2565b60038260038111156119dd576119dd6120c5565b036104b6576040516335e2f38360e21b8152600481018290526024016108a2565b600060ff8216601f81111561067457604051632cd44ac360e21b815260040160405180910390fd5b600080807f7fffffffffffffffffffffffffffffff5d576e7357a4501ddfe92f46681b20a0841115611a615750600091506003905082611aeb565b604080516000808252602082018084528a905260ff891692820192909252606081018790526080810186905260019060a0016020604051602081039080840390855afa158015611ab5573d6000803e3d6000fd5b5050604051601f1901519150506001600160a01b038116611ae157506000925060019150829050611aeb565b9250600091508190505b9450945094915050565b600060208284031215611b0757600080fd5b5035919050565b634e487b7160e01b600052604160045260246000fd5b604051601f8201601f191681016001600160401b0381118282101715611b4c57611b4c611b0e565b604052919050565b60006001600160401b03821115611b6d57611b6d611b0e565b50601f01601f191660200190565b600082601f830112611b8c57600080fd5b8135611b9f611b9a82611b54565b611b24565b818152846020838601011115611bb457600080fd5b816020850160208301376000918101602001919091529392505050565b600080600080600080600080610100898b031215611bee57600080fd5b883597506020890135965060408901356001600160401b0380821115611c1357600080fd5b611c1f8c838d01611b7b565b975060608b0135915080821115611c3557600080fd5b611c418c838d01611b7b565b965060808b0135915080821115611c5757600080fd5b611c638c838d01611b7b565b955060a08b0135915080821115611c7957600080fd5b611c858c838d01611b7b565b945060c08b0135915080821115611c9b57600080fd5b611ca78c838d01611b7b565b935060e08b0135915080821115611cbd57600080fd5b50611cca8b828c01611b7b565b9150509295985092959890939650565b80356001600160a01b0381168114611cf157600080fd5b919050565b60008083601f840112611d0857600080fd5b5081356001600160401b03811115611d1f57600080fd5b602083019150836020828501011115611d3757600080fd5b9250929050565b60008060008060008060808789031215611d5757600080fd5b611d6087611cda565b95506020870135945060408701356001600160401b0380821115611d8357600080fd5b611d8f8a838b01611cf6565b90965094506060890135915080821115611da857600080fd5b50611db589828a01611cf6565b979a9699509497509295939492505050565b60008060408385031215611dda57600080fd5b82359150611dea60208401611cda565b90509250929050565b600080600060608486031215611e0857600080fd5b505081359360208301359350604090920135919050565b600080600080600080600080610100898b031215611e3c57600080fd5b88356001600160401b0380821115611e5357600080fd5b611e5f8c838d01611b7b565b995060208b0135915080821115611e7557600080fd5b611e818c838d01611b7b565b985060408b0135915080821115611e9757600080fd5b611ea38c838d01611b7b565b975060608b0135965060808b0135955060a08b0135915080821115611ec757600080fd5b611ed38c838d01611b7b565b945060c08b0135915080821115611ee957600080fd5b50611ef68b828c01611b7b565b92505060e089013590509295985092959890939650565b60008060008060808587031215611f2357600080fd5b84359350602085013592506040850135915060608501356001600160401b03811115611f4e57600080fd5b611f5a87828801611b7b565b91505092959194509250565b600060208284031215611f7857600080fd5b611f8182611cda565b9392505050565b600081518084526020808501945080840160005b83811015611fc15781516001600160a01b031687529582019590820190600101611f9c565b509495945050505050565b602081526000611f816020830184611f88565b60005b83811015611ffa578181015183820152602001611fe2565b50506000910152565b6000815180845261201b816020860160208601611fdf565b601f01601f19169290920160200192915050565b60ff60f81b881681526000602060e08184015261204f60e084018a612003565b8381036040850152612061818a612003565b606085018990526001600160a01b038816608086015260a0850187905284810360c0860152855180825283870192509083019060005b818110156120b357835183529284019291840191600101612097565b50909c9b505050505050505050505050565b634e487b7160e01b600052602160045260246000fd5b6040815260006120ee6040830185611f88565b8281036020848101919091528451808352858201928201906000805b828110156121425785516002811061213057634e487b7160e01b83526021600452602483fd5b8452948401949284019260010161210a565b509198975050505050505050565b600080600080600080600060e0888a03121561216b57600080fd5b61217488611cda565b96506020880135955060408801356001600160401b038082111561219757600080fd5b6121a38b838c01611b7b565b965060608a01359150808211156121b957600080fd5b6121c58b838c01611b7b565b955060808a01359150808211156121db57600080fd5b6121e78b838c01611b7b565b945060a08a01359150808211156121fd57600080fd5b6122098b838c01611b7b565b935060c08a013591508082111561221f57600080fd5b5061222c8a828b01611b7b565b91505092959891949750929550565b600080600080600080600060e0888a03121561225657600080fd5b87359650602088013595506040880135945060608801356001600160401b03808211156121b957600080fd5b60c08152600061229560c0830189612003565b82810360208401526122a78189612003565b905082810360408401526122bb8188612003565b905082810360608401526122cf8187612003565b905082810360808401526122e38186612003565b905082810360a08401526122f78185612003565b9998505050505050505050565b60006101008083526123188184018c612003565b9050828103602084015261232c818b612003565b90508281036040840152612340818a612003565b905087606084015286608084015282810360a08401526123608187612003565b905082810360c08401526123748186612003565b9150508260e08301529998505050505050505050565b602081526000611f816020830184612003565b60a0815260006123b060a0830188612003565b82810360208401526123c28188612003565b905082810360408401526123d68187612003565b905082810360608401526123ea8186612003565b905082810360808401526123fe8185612003565b98975050505050505050565b60c08152600061241d60c0830189612003565b87602084015286604084015282810360608401526122cf8187612003565b634e487b7160e01b600052601160045260246000fd5b808201808211156106745761067461243b565b8284823760609190911b6bffffffffffffffffffffffff19169101908152601401919050565b6000825161249c818460208701611fdf565b9190910192915050565b6001600160a01b03841681526040602082018190528101829052818360608301376000818301606090810191909152601f909201601f1916010192915050565b634e487b7160e01b600052603260045260246000fd5b60006001820161250e5761250e61243b565b5060010190565b8183823760009101908152919050565b60006020828403121561253757600080fd5b81516001600160401b0381111561254d57600080fd5b8201601f8101841361255e57600080fd5b805161256c611b9a82611b54565b81815285602083850101111561258157600080fd5b612592826020830160208601611fdf565b95945050505050565b600181811c908216806125af57607f821691505b6020821081036125cf57634e487b7160e01b600052602260045260246000fd5b5091905056fea2646970667358221220f4a8cb02d894826f953c8a1e0a93689fd231cfc6bd85e62474214c124b234a8f64736f6c63430008140033",
  "linkReferences": {},
  "deployedLinkReferences": {}
}